{
  "contractName": "NGO",
  "abi": [
    {
      "constant": false,
      "inputs": [
        {
          "name": "merchant",
          "type": "address"
        },
        {
          "name": "name",
          "type": "string"
        },
        {
          "name": "typeOfGoods",
          "type": "string"
        }
      ],
      "name": "addMerchant",
      "outputs": [],
      "payable": false,
      "stateMutability": "nonpayable",
      "type": "function"
    },
    {
      "constant": true,
      "inputs": [
        {
          "name": "merchant",
          "type": "address"
        }
      ],
      "name": "findMerchant",
      "outputs": [
        {
          "name": "",
          "type": "address"
        },
        {
          "name": "",
          "type": "string"
        },
        {
          "name": "",
          "type": "string"
        },
        {
          "name": "",
          "type": "uint256"
        }
      ],
      "payable": false,
      "stateMutability": "view",
      "type": "function"
    },
    {
      "inputs": [
        {
          "name": "numberOfTokens",
          "type": "uint256"
        }
      ],
      "payable": false,
      "stateMutability": "nonpayable",
      "type": "constructor"
    }
  ],
  "bytecode": "0x6060604052341561000f57600080fd5b60405160208061071a8339810160405280805190602001909190505080600181905550506106d8806100426000396000f30060606040526004361061004c576000357c0100000000000000000000000000000000000000000000000000000000900463ffffffff1680639f98e0f314610051578063f1afc11c14610110575b600080fd5b341561005c57600080fd5b61010e600480803573ffffffffffffffffffffffffffffffffffffffff1690602001909190803590602001908201803590602001908080601f0160208091040260200160405190810160405280939291908181526020018383808284378201915050505050509190803590602001908201803590602001908080601f01602080910402602001604051908101604052809392919081815260200183838082843782019150505050505091905050610268565b005b341561011b57600080fd5b610147600480803573ffffffffffffffffffffffffffffffffffffffff16906020019091905050610372565b604051808573ffffffffffffffffffffffffffffffffffffffff1673ffffffffffffffffffffffffffffffffffffffff1681526020018060200180602001848152602001838103835286818151815260200191508051906020019080838360005b838110156101c35780820151818401526020810190506101a8565b50505050905090810190601f1680156101f05780820380516001836020036101000a031916815260200191505b50838103825285818151815260200191508051906020019080838360005b8381101561022957808201518184015260208101905061020e565b50505050905090810190601f1680156102565780820380516001836020036101000a031916815260200191505b50965050505050505060405180910390f35b6080604051908101604052808473ffffffffffffffffffffffffffffffffffffffff16815260200183815260200182815260200160008152506000803373ffffffffffffffffffffffffffffffffffffffff1673ffffffffffffffffffffffffffffffffffffffff16815260200190815260200160002060008201518160000160006101000a81548173ffffffffffffffffffffffffffffffffffffffff021916908373ffffffffffffffffffffffffffffffffffffffff16021790555060208201518160010190805190602001906103429291906105f3565b50604082015181600201908051906020019061035f9291906105f3565b5060608201518160030155905050505050565b600061037c610673565b610384610673565b60008060008673ffffffffffffffffffffffffffffffffffffffff1673ffffffffffffffffffffffffffffffffffffffff16815260200190815260200160002060000160009054906101000a900473ffffffffffffffffffffffffffffffffffffffff166000808773ffffffffffffffffffffffffffffffffffffffff1673ffffffffffffffffffffffffffffffffffffffff1681526020019081526020016000206001016000808873ffffffffffffffffffffffffffffffffffffffff1673ffffffffffffffffffffffffffffffffffffffff1681526020019081526020016000206002016000808973ffffffffffffffffffffffffffffffffffffffff1673ffffffffffffffffffffffffffffffffffffffff16815260200190815260200160002060030154828054600181600116156101000203166002900480601f0160208091040260200160405190810160405280929190818152602001828054600181600116156101000203166002900480156105415780601f1061051657610100808354040283529160200191610541565b820191906000526020600020905b81548152906001019060200180831161052457829003601f168201915b50505050509250818054600181600116156101000203166002900480601f0160208091040260200160405190810160405280929190818152602001828054600181600116156101000203166002900480156105dd5780601f106105b2576101008083540402835291602001916105dd565b820191906000526020600020905b8154815290600101906020018083116105c057829003601f168201915b5050505050915093509350935093509193509193565b828054600181600116156101000203166002900490600052602060002090601f016020900481019282601f1061063457805160ff1916838001178555610662565b82800160010185558215610662579182015b82811115610661578251825591602001919060010190610646565b5b50905061066f9190610687565b5090565b602060405190810160405280600081525090565b6106a991905b808211156106a557600081600090555060010161068d565b5090565b905600a165627a7a723058203eff0a4a455d6a1993c574eb789ed49d94621d25de4f0906daad5bb6e6c513760029",
  "source": "pragma solidity ^0.4.18;\n\n// NGO contract, for managing funds\n\ncontract NGO {\n\n    struct Merchant {\n        address merchantAddress; \n        string name;\n        string typeOfGoods; // colon seperated list of goods sold\n        uint tokenBalance; // number of tokens the Merchant has to redeem\n    }\n\n    mapping (address => Merchant) merchants;\n    uint tokens;\n\n    // constructor to initialize number of tokens\n    function NGO(uint numberOfTokens) public {\n        tokens = numberOfTokens;\n    }\n    \n    // finds and returns if a Merchant exists with the provided address\n    function findMerchant(address merchant) public view returns (address, string, string, uint) {\n        return (merchants[merchant].merchantAddress, merchants[merchant].name, \n            merchants[merchant].typeOfGoods, merchants[merchant].tokenBalance);\n    }\n\n    // adds a merchant if it does not exist\n    function addMerchant(address merchant, string name, string typeOfGoods) public {\n        // require(findMerchant(merchant).merchantAddress == address(0)); \n        merchants[msg.sender] = Merchant(merchant, name, typeOfGoods, 0);\n    }\n\n    \n}\n",
  "sourcePath": "/Users/taariq/code/unlocktheblock/TruffleButter/contracts/NGO.sol",
  "compiler": {
    "name": "solc",
    "version": "0.4.18+commit.9cf6e910.Emscripten.clang"
  },
  "schemaVersion": "1.0.1",
  "updatedAt": "2018-01-29T12:34:47.316Z"
}