{
  "contractName": "NGO",
  "abi": [
    {
      "constant": true,
      "inputs": [
        {
          "name": "gdo",
          "type": "address"
        }
      ],
      "name": "findGDO",
      "outputs": [
        {
          "name": "",
          "type": "address"
        },
        {
          "name": "",
          "type": "string"
        },
        {
          "name": "",
          "type": "uint256"
        }
      ],
      "payable": false,
      "stateMutability": "view",
      "type": "function"
    },
    {
      "constant": false,
      "inputs": [
        {
          "name": "merchant",
          "type": "address"
        }
      ],
      "name": "removeMerchant",
      "outputs": [],
      "payable": false,
      "stateMutability": "nonpayable",
      "type": "function"
    },
    {
      "constant": false,
      "inputs": [
        {
          "name": "beneficiary",
          "type": "address"
        },
        {
          "name": "id",
          "type": "string"
        }
      ],
      "name": "addBeneficiary",
      "outputs": [],
      "payable": false,
      "stateMutability": "nonpayable",
      "type": "function"
    },
    {
      "constant": false,
      "inputs": [
        {
          "name": "beneficiary",
          "type": "address"
        }
      ],
      "name": "removeBeneficiary",
      "outputs": [],
      "payable": false,
      "stateMutability": "nonpayable",
      "type": "function"
    },
    {
      "constant": false,
      "inputs": [
        {
          "name": "gdo",
          "type": "address"
        },
        {
          "name": "name",
          "type": "string"
        },
        {
          "name": "funds",
          "type": "uint256"
        }
      ],
      "name": "addGDO",
      "outputs": [],
      "payable": false,
      "stateMutability": "nonpayable",
      "type": "function"
    },
    {
      "constant": true,
      "inputs": [
        {
          "name": "beneficiary",
          "type": "address"
        }
      ],
      "name": "findBeneficiary",
      "outputs": [
        {
          "name": "",
          "type": "address"
        },
        {
          "name": "",
          "type": "string"
        },
        {
          "name": "",
          "type": "uint256"
        }
      ],
      "payable": false,
      "stateMutability": "view",
      "type": "function"
    },
    {
      "constant": false,
      "inputs": [
        {
          "name": "merchant",
          "type": "address"
        },
        {
          "name": "name",
          "type": "string"
        },
        {
          "name": "typeOfGoods",
          "type": "string"
        }
      ],
      "name": "addMerchant",
      "outputs": [],
      "payable": false,
      "stateMutability": "nonpayable",
      "type": "function"
    },
    {
      "constant": false,
      "inputs": [
        {
          "name": "gdo",
          "type": "address"
        },
        {
          "name": "ammount",
          "type": "uint256"
        }
      ],
      "name": "fundNGO",
      "outputs": [],
      "payable": false,
      "stateMutability": "nonpayable",
      "type": "function"
    },
    {
      "constant": true,
      "inputs": [
        {
          "name": "merchant",
          "type": "address"
        }
      ],
      "name": "findMerchant",
      "outputs": [
        {
          "name": "",
          "type": "address"
        },
        {
          "name": "",
          "type": "string"
        },
        {
          "name": "",
          "type": "string"
        },
        {
          "name": "",
          "type": "uint256"
        }
      ],
      "payable": false,
      "stateMutability": "view",
      "type": "function"
    },
    {
      "inputs": [
        {
          "name": "numberOfTokens",
          "type": "uint256"
        },
        {
          "name": "funds",
          "type": "uint256"
        }
      ],
      "payable": false,
      "stateMutability": "nonpayable",
      "type": "constructor"
    }
  ],
  "bytecode": "0x6060604052341561000f57600080fd5b60405160408061143b83398101604052808051906020019091908051906020019091905050806003819055508160048190555050506113e8806100536000396000f300606060405260043610610099576000357c0100000000000000000000000000000000000000000000000000000000900463ffffffff1680630c3fbed31461009e578063133adab61461018a57806332b578e5146101c357806359633a1c1461023f5780637efb38f7146102785780638287e61e146102fd5780639f98e0f3146103e9578063bacf5c11146104a8578063f1afc11c146104ea575b600080fd5b34156100a957600080fd5b6100d5600480803573ffffffffffffffffffffffffffffffffffffffff16906020019091905050610642565b604051808473ffffffffffffffffffffffffffffffffffffffff1673ffffffffffffffffffffffffffffffffffffffff16815260200180602001838152602001828103825284818151815260200191508051906020019080838360005b8381101561014d578082015181840152602081019050610132565b50505050905090810190601f16801561017a5780820380516001836020036101000a031916815260200191505b5094505050505060405180910390f35b341561019557600080fd5b6101c1600480803573ffffffffffffffffffffffffffffffffffffffff169060200190919050506107df565b005b34156101ce57600080fd5b61023d600480803573ffffffffffffffffffffffffffffffffffffffff1690602001909190803590602001908201803590602001908080601f016020809104026020016040519081016040528093929190818152602001838380828437820191505050505050919050506108bf565b005b341561024a57600080fd5b610276600480803573ffffffffffffffffffffffffffffffffffffffff16906020019091905050610a43565b005b341561028357600080fd5b6102fb600480803573ffffffffffffffffffffffffffffffffffffffff1690602001909190803590602001908201803590602001908080601f01602080910402602001604051908101604052809392919081815260200183838082843782019150505050505091908035906020019091905050610b13565b005b341561030857600080fd5b610334600480803573ffffffffffffffffffffffffffffffffffffffff16906020019091905050610c97565b604051808473ffffffffffffffffffffffffffffffffffffffff1673ffffffffffffffffffffffffffffffffffffffff16815260200180602001838152602001828103825284818151815260200191508051906020019080838360005b838110156103ac578082015181840152602081019050610391565b50505050905090810190601f1680156103d95780820380516001836020036101000a031916815260200191505b5094505050505060405180910390f35b34156103f457600080fd5b6104a6600480803573ffffffffffffffffffffffffffffffffffffffff1690602001909190803590602001908201803590602001908080601f0160208091040260200160405190810160405280939291908181526020018383808284378201915050505050509190803590602001908201803590602001908080601f01602080910402602001604051908101604052809392919081815260200183838082843782019150505050505091905050610e34565b005b34156104b357600080fd5b6104e8600480803573ffffffffffffffffffffffffffffffffffffffff16906020019091908035906020019091905050610f8a565b005b34156104f557600080fd5b610521600480803573ffffffffffffffffffffffffffffffffffffffff1690602001909190505061103a565b604051808573ffffffffffffffffffffffffffffffffffffffff1673ffffffffffffffffffffffffffffffffffffffff1681526020018060200180602001848152602001838103835286818151815260200191508051906020019080838360005b8381101561059d578082015181840152602081019050610582565b50505050905090810190601f1680156105ca5780820380516001836020036101000a031916815260200191505b50838103825285818151815260200191508051906020019080838360005b838110156106035780820151818401526020810190506105e8565b50505050905090810190601f1680156106305780820380516001836020036101000a031916815260200191505b50965050505050505060405180910390f35b600061064c6112bb565b6000600260008573ffffffffffffffffffffffffffffffffffffffff1673ffffffffffffffffffffffffffffffffffffffff16815260200190815260200160002060000160009054906101000a900473ffffffffffffffffffffffffffffffffffffffff16600260008673ffffffffffffffffffffffffffffffffffffffff1673ffffffffffffffffffffffffffffffffffffffff168152602001908152602001600020600101600260008773ffffffffffffffffffffffffffffffffffffffff1673ffffffffffffffffffffffffffffffffffffffff16815260200190815260200160002060020154818054600181600116156101000203166002900480601f0160208091040260200160405190810160405280929190818152602001828054600181600116156101000203166002900480156107cb5780601f106107a0576101008083540402835291602001916107cb565b820191906000526020600020905b8154815290600101906020018083116107ae57829003601f168201915b505050505091509250925092509193909250565b60006107ea8261103a565b5050509050600073ffffffffffffffffffffffffffffffffffffffff168173ffffffffffffffffffffffffffffffffffffffff161415151561082b57600080fd5b6000803373ffffffffffffffffffffffffffffffffffffffff1673ffffffffffffffffffffffffffffffffffffffff168152602001908152602001600020600080820160006101000a81549073ffffffffffffffffffffffffffffffffffffffff02191690556001820160006108a191906112cf565b6002820160006108b191906112cf565b600382016000905550505050565b600073ffffffffffffffffffffffffffffffffffffffff16600160008473ffffffffffffffffffffffffffffffffffffffff1673ffffffffffffffffffffffffffffffffffffffff16815260200190815260200160002060000160009054906101000a900473ffffffffffffffffffffffffffffffffffffffff1673ffffffffffffffffffffffffffffffffffffffff1614151561095c57600080fd5b6060604051908101604052808373ffffffffffffffffffffffffffffffffffffffff1681526020018281526020016000815250600160008473ffffffffffffffffffffffffffffffffffffffff1673ffffffffffffffffffffffffffffffffffffffff16815260200190815260200160002060008201518160000160006101000a81548173ffffffffffffffffffffffffffffffffffffffff021916908373ffffffffffffffffffffffffffffffffffffffff1602179055506020820151816001019080519060200190610a31929190611317565b50604082015181600201559050505050565b6000610a4e82610c97565b50509050600073ffffffffffffffffffffffffffffffffffffffff168173ffffffffffffffffffffffffffffffffffffffff1614151515610a8e57600080fd5b600160008373ffffffffffffffffffffffffffffffffffffffff1673ffffffffffffffffffffffffffffffffffffffff168152602001908152602001600020600080820160006101000a81549073ffffffffffffffffffffffffffffffffffffffff0219169055600182016000610b0591906112cf565b600282016000905550505050565b600073ffffffffffffffffffffffffffffffffffffffff16600260008573ffffffffffffffffffffffffffffffffffffffff1673ffffffffffffffffffffffffffffffffffffffff16815260200190815260200160002060000160009054906101000a900473ffffffffffffffffffffffffffffffffffffffff1673ffffffffffffffffffffffffffffffffffffffff16141515610bb057600080fd5b6060604051908101604052808473ffffffffffffffffffffffffffffffffffffffff16815260200183815260200182815250600260008573ffffffffffffffffffffffffffffffffffffffff1673ffffffffffffffffffffffffffffffffffffffff16815260200190815260200160002060008201518160000160006101000a81548173ffffffffffffffffffffffffffffffffffffffff021916908373ffffffffffffffffffffffffffffffffffffffff1602179055506020820151816001019080519060200190610c84929190611317565b5060408201518160020155905050505050565b6000610ca16112bb565b6000600160008573ffffffffffffffffffffffffffffffffffffffff1673ffffffffffffffffffffffffffffffffffffffff16815260200190815260200160002060000160009054906101000a900473ffffffffffffffffffffffffffffffffffffffff16600160008673ffffffffffffffffffffffffffffffffffffffff1673ffffffffffffffffffffffffffffffffffffffff168152602001908152602001600020600101600160008773ffffffffffffffffffffffffffffffffffffffff1673ffffffffffffffffffffffffffffffffffffffff16815260200190815260200160002060020154818054600181600116156101000203166002900480601f016020809104026020016040519081016040528092919081815260200182805460018160011615610100020316600290048015610e205780601f10610df557610100808354040283529160200191610e20565b820191906000526020600020905b815481529060010190602001808311610e0357829003601f168201915b505050505091509250925092509193909250565b6000610e3f8461103a565b5050509050600073ffffffffffffffffffffffffffffffffffffffff168173ffffffffffffffffffffffffffffffffffffffff16141515610e7f57600080fd5b6080604051908101604052808573ffffffffffffffffffffffffffffffffffffffff16815260200184815260200183815260200160008152506000803373ffffffffffffffffffffffffffffffffffffffff1673ffffffffffffffffffffffffffffffffffffffff16815260200190815260200160002060008201518160000160006101000a81548173ffffffffffffffffffffffffffffffffffffffff021916908373ffffffffffffffffffffffffffffffffffffffff1602179055506020820151816001019080519060200190610f59929190611317565b506040820151816002019080519060200190610f76929190611317565b506060820151816003015590505050505050565b600260008373ffffffffffffffffffffffffffffffffffffffff1673ffffffffffffffffffffffffffffffffffffffff16815260200190815260200160002060020154811115156110365780600260008473ffffffffffffffffffffffffffffffffffffffff1673ffffffffffffffffffffffffffffffffffffffff16815260200190815260200160002060020160008282540392505081905550806003600082825401925050819055505b5050565b60006110446112bb565b61104c6112bb565b60008060008673ffffffffffffffffffffffffffffffffffffffff1673ffffffffffffffffffffffffffffffffffffffff16815260200190815260200160002060000160009054906101000a900473ffffffffffffffffffffffffffffffffffffffff166000808773ffffffffffffffffffffffffffffffffffffffff1673ffffffffffffffffffffffffffffffffffffffff1681526020019081526020016000206001016000808873ffffffffffffffffffffffffffffffffffffffff1673ffffffffffffffffffffffffffffffffffffffff1681526020019081526020016000206002016000808973ffffffffffffffffffffffffffffffffffffffff1673ffffffffffffffffffffffffffffffffffffffff16815260200190815260200160002060030154828054600181600116156101000203166002900480601f0160208091040260200160405190810160405280929190818152602001828054600181600116156101000203166002900480156112095780601f106111de57610100808354040283529160200191611209565b820191906000526020600020905b8154815290600101906020018083116111ec57829003601f168201915b50505050509250818054600181600116156101000203166002900480601f0160208091040260200160405190810160405280929190818152602001828054600181600116156101000203166002900480156112a55780601f1061127a576101008083540402835291602001916112a5565b820191906000526020600020905b81548152906001019060200180831161128857829003601f168201915b5050505050915093509350935093509193509193565b602060405190810160405280600081525090565b50805460018160011615610100020316600290046000825580601f106112f55750611314565b601f0160209004906000526020600020908101906113139190611397565b5b50565b828054600181600116156101000203166002900490600052602060002090601f016020900481019282601f1061135857805160ff1916838001178555611386565b82800160010185558215611386579182015b8281111561138557825182559160200191906001019061136a565b5b5090506113939190611397565b5090565b6113b991905b808211156113b557600081600090555060010161139d565b5090565b905600a165627a7a72305820e3ed4efc8e2c8858d9ee1833ad9d7016ee7095d7fc8c43d31c256faecc10dcd00029",
  "source": "pragma solidity ^0.4.18;\n\n// NGO contract, for managing funds\n\nimport \"./Math/SafeMath.sol\";\n\ncontract NGO {\n\n    using SafeMath for uint; // prevents underflow/overflow problem\n\n    struct Beneficiary {\n        address beneficiaryAddress;\n        string id; //hashed id/passport\n        uint tokenBalance; //current token balance -- TODO consider getting from blockchain account\n    }\n\n    struct Merchant {\n        address merchantAddress; \n        string name;\n        string typeOfGoods; // colon seperated list of goods sold\n        uint tokenBalance; // number of tokens the Merchant has to redeem\n    }\n\n    struct GDO {\n        address gdoAddress;\n        string name;\n        uint donateableFunds;\n    }\n\n    mapping (address => Merchant) merchants;\n    mapping (address => Beneficiary) beneficiaries;\n    mapping (address => GDO) gdos;\n    uint ngoFunds;\n    uint tokens;\n\n    // constructor to initialize number of tokens\n    function NGO(uint numberOfTokens, uint funds) public {\n        ngoFunds = funds;\n        tokens = numberOfTokens;\n    }\n\n    // finds and returns beneficiaries by address\n    function findBeneficiary(address beneficiary) public view returns (address, string, uint) {\n        return (beneficiaries[beneficiary].beneficiaryAddress, beneficiaries[beneficiary].id, \n            beneficiaries[beneficiary].tokenBalance);\n    }\n    \n    function addBeneficiary(address beneficiary, string id) public {\n        require(beneficiaries[beneficiary].beneficiaryAddress == address(0)); \n        beneficiaries[beneficiary] = Beneficiary(beneficiary, id, 0);\n    }\n    \n    function removeBeneficiary(address beneficiary) public {\n        var (b,,) = findBeneficiary(beneficiary);\n        require(b != address(0)); \n        delete beneficiaries[beneficiary];\n    }\n\n    // finds and returns if a Merchant exists with the provided address\n    function findMerchant(address merchant) public view returns (address, string, string, uint) {\n        return (merchants[merchant].merchantAddress, merchants[merchant].name, \n            merchants[merchant].typeOfGoods, merchants[merchant].tokenBalance);\n    }\n\n    // adds a merchant if it does not exist\n    function addMerchant(address merchant, string name, string typeOfGoods) public {\n        var (m,,,) = findMerchant(merchant);\n        require(m == address(0)); \n        merchants[msg.sender] = Merchant(merchant, name, typeOfGoods, 0);\n    }\n\n    //\n    function removeMerchant(address merchant) public {\n        var (m,,,) = findMerchant(merchant);\n        require(m != address(0)); \n        delete merchants[msg.sender];\n    }\n\n    // adds a gdo if it does not exist\n    function addGDO(address gdo, string name, uint funds) public {\n        require(gdos[gdo].gdoAddress == address(0)); \n        gdos[gdo] = GDO(gdo, name, funds);\n    }\n\n    // finds and returns if a gdo exists with the provided address\n    function findGDO(address gdo) public view returns (address, string, uint) {\n        return (gdos[gdo].gdoAddress, gdos[gdo].name, \n            gdos[gdo].donateableFunds);\n    }\n\n    // sends funds from gdo to ngo\n    function fundNGO (address gdo, uint ammount) public{\n        if(ammount <= gdos[gdo].donateableFunds){\n            gdos[gdo].donateableFunds -= ammount;\n            ngoFunds += ammount;\n        }\n    }   \n}",
  "sourcePath": "/home/jp/TruffleButter/contracts/NGO.sol",
  "compiler": {
    "name": "solc",
    "version": "0.4.18+commit.9cf6e910.Emscripten.clang"
  },
  "schemaVersion": "1.0.1",
  "updatedAt": "2018-01-30T10:59:43.270Z"
}