{
  "contractName": "NGO",
  "abi": [
    {
      "constant": false,
      "inputs": [
        {
          "name": "merchant",
          "type": "address"
        }
      ],
      "name": "removeMerchant",
      "outputs": [],
      "payable": false,
      "stateMutability": "nonpayable",
      "type": "function"
    },
    {
      "constant": false,
      "inputs": [
        {
          "name": "merchant",
          "type": "address"
        },
        {
          "name": "name",
          "type": "string"
        },
        {
          "name": "typeOfGoods",
          "type": "string"
        }
      ],
      "name": "addMerchant",
      "outputs": [],
      "payable": false,
      "stateMutability": "nonpayable",
      "type": "function"
    },
    {
      "constant": true,
      "inputs": [
        {
          "name": "merchant",
          "type": "address"
        }
      ],
      "name": "findMerchant",
      "outputs": [
        {
          "name": "",
          "type": "address"
        },
        {
          "name": "",
          "type": "string"
        },
        {
          "name": "",
          "type": "string"
        },
        {
          "name": "",
          "type": "uint256"
        }
      ],
      "payable": false,
      "stateMutability": "view",
      "type": "function"
    }
  ],
  "bytecode": "0x6060604052341561000f57600080fd5b6108908061001e6000396000f300606060405260043610610057576000357c0100000000000000000000000000000000000000000000000000000000900463ffffffff168063133adab61461005c5780639f98e0f314610095578063f1afc11c14610154575b600080fd5b341561006757600080fd5b610093600480803573ffffffffffffffffffffffffffffffffffffffff169060200190919050506102ac565b005b34156100a057600080fd5b610152600480803573ffffffffffffffffffffffffffffffffffffffff1690602001909190803590602001908201803590602001908080601f0160208091040260200160405190810160405280939291908181526020018383808284378201915050505050509190803590602001908201803590602001908080601f0160208091040260200160405190810160405280939291908181526020018383808284378201915050505050509190505061038c565b005b341561015f57600080fd5b61018b600480803573ffffffffffffffffffffffffffffffffffffffff169060200190919050506104e2565b604051808573ffffffffffffffffffffffffffffffffffffffff1673ffffffffffffffffffffffffffffffffffffffff1681526020018060200180602001848152602001838103835286818151815260200191508051906020019080838360005b838110156102075780820151818401526020810190506101ec565b50505050905090810190601f1680156102345780820380516001836020036101000a031916815260200191505b50838103825285818151815260200191508051906020019080838360005b8381101561026d578082015181840152602081019050610252565b50505050905090810190601f16801561029a5780820380516001836020036101000a031916815260200191505b50965050505050505060405180910390f35b60006102b7826104e2565b5050509050600073ffffffffffffffffffffffffffffffffffffffff168173ffffffffffffffffffffffffffffffffffffffff16141515156102f857600080fd5b6000803373ffffffffffffffffffffffffffffffffffffffff1673ffffffffffffffffffffffffffffffffffffffff168152602001908152602001600020600080820160006101000a81549073ffffffffffffffffffffffffffffffffffffffff021916905560018201600061036e9190610763565b60028201600061037e9190610763565b600382016000905550505050565b6000610397846104e2565b5050509050600073ffffffffffffffffffffffffffffffffffffffff168173ffffffffffffffffffffffffffffffffffffffff161415156103d757600080fd5b6080604051908101604052808573ffffffffffffffffffffffffffffffffffffffff16815260200184815260200183815260200160008152506000803373ffffffffffffffffffffffffffffffffffffffff1673ffffffffffffffffffffffffffffffffffffffff16815260200190815260200160002060008201518160000160006101000a81548173ffffffffffffffffffffffffffffffffffffffff021916908373ffffffffffffffffffffffffffffffffffffffff16021790555060208201518160010190805190602001906104b19291906107ab565b5060408201518160020190805190602001906104ce9291906107ab565b506060820151816003015590505050505050565b60006104ec61082b565b6104f461082b565b60008060008673ffffffffffffffffffffffffffffffffffffffff1673ffffffffffffffffffffffffffffffffffffffff16815260200190815260200160002060000160009054906101000a900473ffffffffffffffffffffffffffffffffffffffff166000808773ffffffffffffffffffffffffffffffffffffffff1673ffffffffffffffffffffffffffffffffffffffff1681526020019081526020016000206001016000808873ffffffffffffffffffffffffffffffffffffffff1673ffffffffffffffffffffffffffffffffffffffff1681526020019081526020016000206002016000808973ffffffffffffffffffffffffffffffffffffffff1673ffffffffffffffffffffffffffffffffffffffff16815260200190815260200160002060030154828054600181600116156101000203166002900480601f0160208091040260200160405190810160405280929190818152602001828054600181600116156101000203166002900480156106b15780601f10610686576101008083540402835291602001916106b1565b820191906000526020600020905b81548152906001019060200180831161069457829003601f168201915b50505050509250818054600181600116156101000203166002900480601f01602080910402602001604051908101604052809291908181526020018280546001816001161561010002031660029004801561074d5780601f106107225761010080835404028352916020019161074d565b820191906000526020600020905b81548152906001019060200180831161073057829003601f168201915b5050505050915093509350935093509193509193565b50805460018160011615610100020316600290046000825580601f1061078957506107a8565b601f0160209004906000526020600020908101906107a7919061083f565b5b50565b828054600181600116156101000203166002900490600052602060002090601f016020900481019282601f106107ec57805160ff191683800117855561081a565b8280016001018555821561081a579182015b828111156108195782518255916020019190600101906107fe565b5b509050610827919061083f565b5090565b602060405190810160405280600081525090565b61086191905b8082111561085d576000816000905550600101610845565b5090565b905600a165627a7a723058201fa723f34a34f9ab2054efd5d361e210d61226e59c796740ff35b33d3ee3d7170029",
  "source": "pragma solidity ^0.4.18;\n\n// Bank contract, for managing merchants and tokens\n\nimport \"./Math/SafeMath.sol\";\n\ncontract NGO {\n    \n    using SafeMath for uint; // prevents underflow/overflow problem\n\n    struct Merchant {\n        address merchantAddress; \n        string name;\n        string typeOfGoods; // colon seperated list of goods sold\n        uint tokenBalance; // number of tokens the Merchant has to redeem\n    }\n\n    mapping (address => Merchant) merchants;\n\n    // finds and returns if a Merchant exists with the provided address\n    function findMerchant(address merchant) public view returns (address, string, string, uint) {\n        return (merchants[merchant].merchantAddress, merchants[merchant].name, \n            merchants[merchant].typeOfGoods, merchants[merchant].tokenBalance);\n    }\n\n    // adds a merchant if it does not exist\n    function addMerchant(address merchant, string name, string typeOfGoods) public {\n        var (m,,,) = findMerchant(merchant);\n        require(m == address(0)); \n        merchants[msg.sender] = Merchant(merchant, name, typeOfGoods, 0);\n    }\n\n    //\n    function removeMerchant(address merchant) public {\n        var (m,,,) = findMerchant(merchant);\n        require(m != address(0)); \n        delete merchants[msg.sender];\n    }\n\n}",
  "sourcePath": "/home/jp/TruffleButter/contracts/Bank.sol",
  "compiler": {
    "name": "solc",
    "version": "0.4.18+commit.9cf6e910.Emscripten.clang"
  },
  "schemaVersion": "1.0.1",
  "updatedAt": "2018-01-30T12:48:39.801Z"
}