{
  "contractName": "NGO",
  "abi": [
    {
      "constant": false,
      "inputs": [
        {
          "name": "merchant",
          "type": "address"
        }
      ],
      "name": "removeMerchant",
      "outputs": [],
      "payable": false,
      "stateMutability": "nonpayable",
      "type": "function"
    },
    {
      "constant": false,
      "inputs": [
        {
          "name": "beneficiary",
          "type": "address"
        },
        {
          "name": "id",
          "type": "string"
        }
      ],
      "name": "addBeneficiary",
      "outputs": [],
      "payable": false,
      "stateMutability": "nonpayable",
      "type": "function"
    },
    {
      "constant": false,
      "inputs": [
        {
          "name": "beneficiary",
          "type": "address"
        }
      ],
      "name": "removeBeneficiary",
      "outputs": [],
      "payable": false,
      "stateMutability": "nonpayable",
      "type": "function"
    },
    {
      "constant": true,
      "inputs": [
        {
          "name": "beneficiary",
          "type": "address"
        }
      ],
      "name": "findBeneficiary",
      "outputs": [
        {
          "name": "",
          "type": "address"
        },
        {
          "name": "",
          "type": "string"
        },
        {
          "name": "",
          "type": "uint256"
        }
      ],
      "payable": false,
      "stateMutability": "view",
      "type": "function"
    },
    {
      "constant": false,
      "inputs": [
        {
          "name": "merchant",
          "type": "address"
        },
        {
          "name": "name",
          "type": "string"
        },
        {
          "name": "typeOfGoods",
          "type": "string"
        }
      ],
      "name": "addMerchant",
      "outputs": [],
      "payable": false,
      "stateMutability": "nonpayable",
      "type": "function"
    },
    {
      "constant": true,
      "inputs": [
        {
          "name": "merchant",
          "type": "address"
        }
      ],
      "name": "findMerchant",
      "outputs": [
        {
          "name": "",
          "type": "address"
        },
        {
          "name": "",
          "type": "string"
        },
        {
          "name": "",
          "type": "string"
        },
        {
          "name": "",
          "type": "uint256"
        }
      ],
      "payable": false,
      "stateMutability": "view",
      "type": "function"
    },
    {
      "inputs": [
        {
          "name": "numberOfTokens",
          "type": "uint256"
        }
      ],
      "payable": false,
      "stateMutability": "nonpayable",
      "type": "constructor"
    }
  ],
  "bytecode": "0x6060604052341561000f57600080fd5b604051602080610e85833981016040528080519060200190919050508060028190555050610e43806100426000396000f300606060405260043610610078576000357c0100000000000000000000000000000000000000000000000000000000900463ffffffff168063133adab61461007d57806332b578e5146100b657806359633a1c146101325780638287e61e1461016b5780639f98e0f314610257578063f1afc11c14610316575b600080fd5b341561008857600080fd5b6100b4600480803573ffffffffffffffffffffffffffffffffffffffff1690602001909190505061046e565b005b34156100c157600080fd5b610130600480803573ffffffffffffffffffffffffffffffffffffffff1690602001909190803590602001908201803590602001908080601f0160208091040260200160405190810160405280939291908181526020018383808284378201915050505050509190505061054e565b005b341561013d57600080fd5b610169600480803573ffffffffffffffffffffffffffffffffffffffff169060200190919050506106d2565b005b341561017657600080fd5b6101a2600480803573ffffffffffffffffffffffffffffffffffffffff169060200190919050506107a2565b604051808473ffffffffffffffffffffffffffffffffffffffff1673ffffffffffffffffffffffffffffffffffffffff16815260200180602001838152602001828103825284818151815260200191508051906020019080838360005b8381101561021a5780820151818401526020810190506101ff565b50505050905090810190601f1680156102475780820380516001836020036101000a031916815260200191505b5094505050505060405180910390f35b341561026257600080fd5b610314600480803573ffffffffffffffffffffffffffffffffffffffff1690602001909190803590602001908201803590602001908080601f0160208091040260200160405190810160405280939291908181526020018383808284378201915050505050509190803590602001908201803590602001908080601f0160208091040260200160405190810160405280939291908181526020018383808284378201915050505050509190505061093f565b005b341561032157600080fd5b61034d600480803573ffffffffffffffffffffffffffffffffffffffff16906020019091905050610a95565b604051808573ffffffffffffffffffffffffffffffffffffffff1673ffffffffffffffffffffffffffffffffffffffff1681526020018060200180602001848152602001838103835286818151815260200191508051906020019080838360005b838110156103c95780820151818401526020810190506103ae565b50505050905090810190601f1680156103f65780820380516001836020036101000a031916815260200191505b50838103825285818151815260200191508051906020019080838360005b8381101561042f578082015181840152602081019050610414565b50505050905090810190601f16801561045c5780820380516001836020036101000a031916815260200191505b50965050505050505060405180910390f35b600061047982610a95565b5050509050600073ffffffffffffffffffffffffffffffffffffffff168173ffffffffffffffffffffffffffffffffffffffff16141515156104ba57600080fd5b6000803373ffffffffffffffffffffffffffffffffffffffff1673ffffffffffffffffffffffffffffffffffffffff168152602001908152602001600020600080820160006101000a81549073ffffffffffffffffffffffffffffffffffffffff02191690556001820160006105309190610d16565b6002820160006105409190610d16565b600382016000905550505050565b600073ffffffffffffffffffffffffffffffffffffffff16600160008473ffffffffffffffffffffffffffffffffffffffff1673ffffffffffffffffffffffffffffffffffffffff16815260200190815260200160002060000160009054906101000a900473ffffffffffffffffffffffffffffffffffffffff1673ffffffffffffffffffffffffffffffffffffffff161415156105eb57600080fd5b6060604051908101604052808373ffffffffffffffffffffffffffffffffffffffff1681526020018281526020016000815250600160008473ffffffffffffffffffffffffffffffffffffffff1673ffffffffffffffffffffffffffffffffffffffff16815260200190815260200160002060008201518160000160006101000a81548173ffffffffffffffffffffffffffffffffffffffff021916908373ffffffffffffffffffffffffffffffffffffffff16021790555060208201518160010190805190602001906106c0929190610d5e565b50604082015181600201559050505050565b60006106dd826107a2565b50509050600073ffffffffffffffffffffffffffffffffffffffff168173ffffffffffffffffffffffffffffffffffffffff161415151561071d57600080fd5b600160008373ffffffffffffffffffffffffffffffffffffffff1673ffffffffffffffffffffffffffffffffffffffff168152602001908152602001600020600080820160006101000a81549073ffffffffffffffffffffffffffffffffffffffff02191690556001820160006107949190610d16565b600282016000905550505050565b60006107ac610dde565b6000600160008573ffffffffffffffffffffffffffffffffffffffff1673ffffffffffffffffffffffffffffffffffffffff16815260200190815260200160002060000160009054906101000a900473ffffffffffffffffffffffffffffffffffffffff16600160008673ffffffffffffffffffffffffffffffffffffffff1673ffffffffffffffffffffffffffffffffffffffff168152602001908152602001600020600101600160008773ffffffffffffffffffffffffffffffffffffffff1673ffffffffffffffffffffffffffffffffffffffff16815260200190815260200160002060020154818054600181600116156101000203166002900480601f01602080910402602001604051908101604052809291908181526020018280546001816001161561010002031660029004801561092b5780601f106109005761010080835404028352916020019161092b565b820191906000526020600020905b81548152906001019060200180831161090e57829003601f168201915b505050505091509250925092509193909250565b600061094a84610a95565b5050509050600073ffffffffffffffffffffffffffffffffffffffff168173ffffffffffffffffffffffffffffffffffffffff1614151561098a57600080fd5b6080604051908101604052808573ffffffffffffffffffffffffffffffffffffffff16815260200184815260200183815260200160008152506000803373ffffffffffffffffffffffffffffffffffffffff1673ffffffffffffffffffffffffffffffffffffffff16815260200190815260200160002060008201518160000160006101000a81548173ffffffffffffffffffffffffffffffffffffffff021916908373ffffffffffffffffffffffffffffffffffffffff1602179055506020820151816001019080519060200190610a64929190610d5e565b506040820151816002019080519060200190610a81929190610d5e565b506060820151816003015590505050505050565b6000610a9f610dde565b610aa7610dde565b60008060008673ffffffffffffffffffffffffffffffffffffffff1673ffffffffffffffffffffffffffffffffffffffff16815260200190815260200160002060000160009054906101000a900473ffffffffffffffffffffffffffffffffffffffff166000808773ffffffffffffffffffffffffffffffffffffffff1673ffffffffffffffffffffffffffffffffffffffff1681526020019081526020016000206001016000808873ffffffffffffffffffffffffffffffffffffffff1673ffffffffffffffffffffffffffffffffffffffff1681526020019081526020016000206002016000808973ffffffffffffffffffffffffffffffffffffffff1673ffffffffffffffffffffffffffffffffffffffff16815260200190815260200160002060030154828054600181600116156101000203166002900480601f016020809104026020016040519081016040528092919081815260200182805460018160011615610100020316600290048015610c645780601f10610c3957610100808354040283529160200191610c64565b820191906000526020600020905b815481529060010190602001808311610c4757829003601f168201915b50505050509250818054600181600116156101000203166002900480601f016020809104026020016040519081016040528092919081815260200182805460018160011615610100020316600290048015610d005780601f10610cd557610100808354040283529160200191610d00565b820191906000526020600020905b815481529060010190602001808311610ce357829003601f168201915b5050505050915093509350935093509193509193565b50805460018160011615610100020316600290046000825580601f10610d3c5750610d5b565b601f016020900490600052602060002090810190610d5a9190610df2565b5b50565b828054600181600116156101000203166002900490600052602060002090601f016020900481019282601f10610d9f57805160ff1916838001178555610dcd565b82800160010185558215610dcd579182015b82811115610dcc578251825591602001919060010190610db1565b5b509050610dda9190610df2565b5090565b602060405190810160405280600081525090565b610e1491905b80821115610e10576000816000905550600101610df8565b5090565b905600a165627a7a7230582061e671c31852cadbc92ca1410e0eb78b319a89663bdd5f9e61b327cc38e5b73e0029",
  "source": "pragma solidity ^0.4.18;\n\n// NGO contract, for managing funds\n\nimport \"./Math/SafeMath.sol\";\n\ncontract NGO {\n\n    using SafeMath for uint;\n    struct Beneficiary {\n        address beneficiaryAddress;\n        string id; //hashed id/passport\n        uint tokenBalance; //current token balance -- TODO consider getting from blockchain account\n    }\n\n    struct Merchant {\n        address merchantAddress; \n        string name;\n        string typeOfGoods; // colon seperated list of goods sold\n        uint tokenBalance; // number of tokens the Merchant has to redeem\n    }\n\n    mapping (address => Merchant) merchants;\n    mapping (address => Beneficiary) beneficiaries;\n    uint tokens;\n\n    // constructor to initialize number of tokens\n    function NGO(uint numberOfTokens) public {\n        tokens = numberOfTokens;\n    }\n\n    // finds and returns beneficiaries by address\n    function findBeneficiary(address beneficiary) public view returns (address, string, uint) {\n        return (beneficiaries[beneficiary].beneficiaryAddress, beneficiaries[beneficiary].id, \n            beneficiaries[beneficiary].tokenBalance);\n    }\n    \n    function addBeneficiary(address beneficiary, string id) public {\n        require(beneficiaries[beneficiary].beneficiaryAddress == address(0)); \n        beneficiaries[beneficiary] = Beneficiary(beneficiary, id, 0);\n    }\n    \n    function removeBeneficiary(address beneficiary) public {\n        var (b,,) = findBeneficiary(beneficiary);\n        require(b != address(0)); \n        delete beneficiaries[beneficiary];\n    }\n\n    // finds and returns if a Merchant exists with the provided address\n    function findMerchant(address merchant) public view returns (address, string, string, uint) {\n        return (merchants[merchant].merchantAddress, merchants[merchant].name, \n            merchants[merchant].typeOfGoods, merchants[merchant].tokenBalance);\n    }\n\n    // adds a merchant if it does not exist\n    function addMerchant(address merchant, string name, string typeOfGoods) public {\n        var (m,,,) = findMerchant(merchant);\n        require(m == address(0)); \n        merchants[msg.sender] = Merchant(merchant, name, typeOfGoods, 0);\n    }\n\n    //\n    function removeMerchant(address merchant) public {\n        var (m,,,) = findMerchant(merchant);\n        require(m != address(0)); \n        delete merchants[msg.sender];\n    }\n\n    \n}",
  "sourcePath": "/home/jp/TruffleButter/contracts/NGO.sol",
  "compiler": {
    "name": "solc",
    "version": "0.4.18+commit.9cf6e910.Emscripten.clang"
  },
  "schemaVersion": "1.0.1",
  "updatedAt": "2018-01-30T06:30:11.990Z"
}