{
  "contractName": "NGO",
  "abi": [
    {
      "constant": false,
      "inputs": [
        {
          "name": "beneficiary",
          "type": "address"
        },
        {
          "name": "id",
          "type": "string"
        }
      ],
      "name": "addBeneficiary",
      "outputs": [],
      "payable": false,
      "stateMutability": "nonpayable",
      "type": "function"
    },
    {
      "constant": true,
      "inputs": [
        {
          "name": "beneficiary",
          "type": "address"
        }
      ],
      "name": "findBeneficiary",
      "outputs": [
        {
          "name": "",
          "type": "address"
        },
        {
          "name": "",
          "type": "string"
        },
        {
          "name": "",
          "type": "uint256"
        }
      ],
      "payable": false,
      "stateMutability": "view",
      "type": "function"
    },
    {
      "constant": false,
      "inputs": [
        {
          "name": "merchant",
          "type": "address"
        },
        {
          "name": "name",
          "type": "string"
        },
        {
          "name": "typeOfGoods",
          "type": "string"
        }
      ],
      "name": "addMerchant",
      "outputs": [],
      "payable": false,
      "stateMutability": "nonpayable",
      "type": "function"
    },
    {
      "constant": true,
      "inputs": [
        {
          "name": "merchant",
          "type": "address"
        }
      ],
      "name": "findMerchant",
      "outputs": [
        {
          "name": "",
          "type": "address"
        },
        {
          "name": "",
          "type": "string"
        },
        {
          "name": "",
          "type": "string"
        },
        {
          "name": "",
          "type": "uint256"
        }
      ],
      "payable": false,
      "stateMutability": "view",
      "type": "function"
    },
    {
      "inputs": [
        {
          "name": "numberOfTokens",
          "type": "uint256"
        }
      ],
      "payable": false,
      "stateMutability": "nonpayable",
      "type": "constructor"
    }
  ],
  "bytecode": "0x6060604052341561000f57600080fd5b604051602080610b1c833981016040528080519060200190919050508060028190555050610ada806100426000396000f300606060405260043610610062576000357c0100000000000000000000000000000000000000000000000000000000900463ffffffff16806332b578e5146100675780638287e61e146100e35780639f98e0f3146101cf578063f1afc11c1461028e575b600080fd5b341561007257600080fd5b6100e1600480803573ffffffffffffffffffffffffffffffffffffffff1690602001909190803590602001908201803590602001908080601f016020809104026020016040519081016040528093929190818152602001838380828437820191505050505050919050506103e6565b005b34156100ee57600080fd5b61011a600480803573ffffffffffffffffffffffffffffffffffffffff169060200190919050506104cd565b604051808473ffffffffffffffffffffffffffffffffffffffff1673ffffffffffffffffffffffffffffffffffffffff16815260200180602001838152602001828103825284818151815260200191508051906020019080838360005b83811015610192578082015181840152602081019050610177565b50505050905090810190601f1680156101bf5780820380516001836020036101000a031916815260200191505b5094505050505060405180910390f35b34156101da57600080fd5b61028c600480803573ffffffffffffffffffffffffffffffffffffffff1690602001909190803590602001908201803590602001908080601f0160208091040260200160405190810160405280939291908181526020018383808284378201915050505050509190803590602001908201803590602001908080601f0160208091040260200160405190810160405280939291908181526020018383808284378201915050505050509190505061066a565b005b341561029957600080fd5b6102c5600480803573ffffffffffffffffffffffffffffffffffffffff16906020019091905050610774565b604051808573ffffffffffffffffffffffffffffffffffffffff1673ffffffffffffffffffffffffffffffffffffffff1681526020018060200180602001848152602001838103835286818151815260200191508051906020019080838360005b83811015610341578082015181840152602081019050610326565b50505050905090810190601f16801561036e5780820380516001836020036101000a031916815260200191505b50838103825285818151815260200191508051906020019080838360005b838110156103a757808201518184015260208101905061038c565b50505050905090810190601f1680156103d45780820380516001836020036101000a031916815260200191505b50965050505050505060405180910390f35b6060604051908101604052808373ffffffffffffffffffffffffffffffffffffffff1681526020018281526020016000815250600160008473ffffffffffffffffffffffffffffffffffffffff1673ffffffffffffffffffffffffffffffffffffffff16815260200190815260200160002060008201518160000160006101000a81548173ffffffffffffffffffffffffffffffffffffffff021916908373ffffffffffffffffffffffffffffffffffffffff16021790555060208201518160010190805190602001906104bb9291906109f5565b50604082015181600201559050505050565b60006104d7610a75565b6000600160008573ffffffffffffffffffffffffffffffffffffffff1673ffffffffffffffffffffffffffffffffffffffff16815260200190815260200160002060000160009054906101000a900473ffffffffffffffffffffffffffffffffffffffff16600160008673ffffffffffffffffffffffffffffffffffffffff1673ffffffffffffffffffffffffffffffffffffffff168152602001908152602001600020600101600160008773ffffffffffffffffffffffffffffffffffffffff1673ffffffffffffffffffffffffffffffffffffffff16815260200190815260200160002060020154818054600181600116156101000203166002900480601f0160208091040260200160405190810160405280929190818152602001828054600181600116156101000203166002900480156106565780601f1061062b57610100808354040283529160200191610656565b820191906000526020600020905b81548152906001019060200180831161063957829003601f168201915b505050505091509250925092509193909250565b6080604051908101604052808473ffffffffffffffffffffffffffffffffffffffff16815260200183815260200182815260200160008152506000803373ffffffffffffffffffffffffffffffffffffffff1673ffffffffffffffffffffffffffffffffffffffff16815260200190815260200160002060008201518160000160006101000a81548173ffffffffffffffffffffffffffffffffffffffff021916908373ffffffffffffffffffffffffffffffffffffffff16021790555060208201518160010190805190602001906107449291906109f5565b5060408201518160020190805190602001906107619291906109f5565b5060608201518160030155905050505050565b600061077e610a75565b610786610a75565b60008060008673ffffffffffffffffffffffffffffffffffffffff1673ffffffffffffffffffffffffffffffffffffffff16815260200190815260200160002060000160009054906101000a900473ffffffffffffffffffffffffffffffffffffffff166000808773ffffffffffffffffffffffffffffffffffffffff1673ffffffffffffffffffffffffffffffffffffffff1681526020019081526020016000206001016000808873ffffffffffffffffffffffffffffffffffffffff1673ffffffffffffffffffffffffffffffffffffffff1681526020019081526020016000206002016000808973ffffffffffffffffffffffffffffffffffffffff1673ffffffffffffffffffffffffffffffffffffffff16815260200190815260200160002060030154828054600181600116156101000203166002900480601f0160208091040260200160405190810160405280929190818152602001828054600181600116156101000203166002900480156109435780601f1061091857610100808354040283529160200191610943565b820191906000526020600020905b81548152906001019060200180831161092657829003601f168201915b50505050509250818054600181600116156101000203166002900480601f0160208091040260200160405190810160405280929190818152602001828054600181600116156101000203166002900480156109df5780601f106109b4576101008083540402835291602001916109df565b820191906000526020600020905b8154815290600101906020018083116109c257829003601f168201915b5050505050915093509350935093509193509193565b828054600181600116156101000203166002900490600052602060002090601f016020900481019282601f10610a3657805160ff1916838001178555610a64565b82800160010185558215610a64579182015b82811115610a63578251825591602001919060010190610a48565b5b509050610a719190610a89565b5090565b602060405190810160405280600081525090565b610aab91905b80821115610aa7576000816000905550600101610a8f565b5090565b905600a165627a7a723058207b97d4f32e744f2f9fbafb9ef0e31a38f54c38ba71097692a8cca0ca81ed0e880029",
  "source": "pragma solidity ^0.4.18;\n\n// NGO contract, for managing funds\n\ncontract NGO {\n\n    struct Beneficiary {\n        address beneficiaryAddress;\n        string id; //hashed id/passport\n        uint tokenBalance; //current token balance -- TODO consider getting from blockchain account\n    }\n\n    struct Merchant {\n        address merchantAddress; \n        string name;\n        string typeOfGoods; // colon seperated list of goods sold\n        uint tokenBalance; // number of tokens the Merchant has to redeem\n    }\n\n    mapping (address => Merchant) merchants;\n    mapping (address => Beneficiary) beneficiaries;\n    uint tokens;\n\n    // constructor to initialize number of tokens\n    function NGO(uint numberOfTokens) public {\n        tokens = numberOfTokens;\n    }\n\n    // finds and returns beneficiaries by address\n    function findBeneficiary(address beneficiary) public view returns (address, string, uint) {\n        // require(findMerchant(beneficiary).beneficiaryAddress == address(0)); \n        //0x0000000000000000000000000000000000000000\n        return (beneficiaries[beneficiary].beneficiaryAddress, beneficiaries[beneficiary].id, \n            beneficiaries[beneficiary].tokenBalance);\n    }\n    \n    function addBeneficiary(address beneficiary, string id) public {\n        // require(findBeneficiary(beneficiary)[0] == address(0)); \n        beneficiaries[beneficiary] = Beneficiary(beneficiary, id, 0);\n    }\n\n\n    // finds and returns if a Merchant exists with the provided address\n    function findMerchant(address merchant) public view returns (address, string, string, uint) {\n        return (merchants[merchant].merchantAddress, merchants[merchant].name, \n            merchants[merchant].typeOfGoods, merchants[merchant].tokenBalance);\n    }\n\n    // adds a merchant if it does not exist\n    function addMerchant(address merchant, string name, string typeOfGoods) public {\n        // require(findMerchant(merchant).merchantAddress == address(0)); \n        merchants[msg.sender] = Merchant(merchant, name, typeOfGoods, 0);\n    }\n\n    \n}\n",
  "sourcePath": "/Users/taariq/code/unlocktheblock/TruffleButter/contracts/NGO.sol",
  "compiler": {
    "name": "solc",
    "version": "0.4.18+commit.9cf6e910.Emscripten.clang"
  },
  "schemaVersion": "1.0.1",
  "updatedAt": "2018-01-29T12:57:51.431Z"
}